{
  "_format": "hh-sol-artifact-1",
  "contractName": "PolyIDSBT",
  "sourceName": "contracts/PolyIDSBT.sol",
  "abi": [
    {
      "inputs": [],
      "stateMutability": "nonpayable",
      "type": "constructor"
    },
    {
      "inputs": [
        {
          "internalType": "address",
          "name": "sender",
          "type": "address"
        },
        {
          "internalType": "uint256",
          "name": "tokenId",
          "type": "uint256"
        },
        {
          "internalType": "address",
          "name": "owner",
          "type": "address"
        }
      ],
      "name": "ERC721IncorrectOwner",
      "type": "error"
    },
    {
      "inputs": [
        {
          "internalType": "address",
          "name": "operator",
          "type": "address"
        },
        {
          "internalType": "uint256",
          "name": "tokenId",
          "type": "uint256"
        }
      ],
      "name": "ERC721InsufficientApproval",
      "type": "error"
    },
    {
      "inputs": [
        {
          "internalType": "address",
          "name": "approver",
          "type": "address"
        }
      ],
      "name": "ERC721InvalidApprover",
      "type": "error"
    },
    {
      "inputs": [
        {
          "internalType": "address",
          "name": "operator",
          "type": "address"
        }
      ],
      "name": "ERC721InvalidOperator",
      "type": "error"
    },
    {
      "inputs": [
        {
          "internalType": "address",
          "name": "owner",
          "type": "address"
        }
      ],
      "name": "ERC721InvalidOwner",
      "type": "error"
    },
    {
      "inputs": [
        {
          "internalType": "address",
          "name": "receiver",
          "type": "address"
        }
      ],
      "name": "ERC721InvalidReceiver",
      "type": "error"
    },
    {
      "inputs": [
        {
          "internalType": "address",
          "name": "sender",
          "type": "address"
        }
      ],
      "name": "ERC721InvalidSender",
      "type": "error"
    },
    {
      "inputs": [
        {
          "internalType": "uint256",
          "name": "tokenId",
          "type": "uint256"
        }
      ],
      "name": "ERC721NonexistentToken",
      "type": "error"
    },
    {
      "inputs": [
        {
          "internalType": "address",
          "name": "owner",
          "type": "address"
        }
      ],
      "name": "OwnableInvalidOwner",
      "type": "error"
    },
    {
      "inputs": [
        {
          "internalType": "address",
          "name": "account",
          "type": "address"
        }
      ],
      "name": "OwnableUnauthorizedAccount",
      "type": "error"
    },
    {
      "anonymous": false,
      "inputs": [
        {
          "indexed": true,
          "internalType": "address",
          "name": "owner",
          "type": "address"
        },
        {
          "indexed": true,
          "internalType": "address",
          "name": "approved",
          "type": "address"
        },
        {
          "indexed": true,
          "internalType": "uint256",
          "name": "tokenId",
          "type": "uint256"
        }
      ],
      "name": "Approval",
      "type": "event"
    },
    {
      "anonymous": false,
      "inputs": [
        {
          "indexed": true,
          "internalType": "address",
          "name": "owner",
          "type": "address"
        },
        {
          "indexed": true,
          "internalType": "address",
          "name": "operator",
          "type": "address"
        },
        {
          "indexed": false,
          "internalType": "bool",
          "name": "approved",
          "type": "bool"
        }
      ],
      "name": "ApprovalForAll",
      "type": "event"
    },
    {
      "anonymous": false,
      "inputs": [
        {
          "indexed": true,
          "internalType": "address",
          "name": "issuer",
          "type": "address"
        },
        {
          "indexed": true,
          "internalType": "address",
          "name": "student",
          "type": "address"
        },
        {
          "indexed": true,
          "internalType": "uint256",
          "name": "tokenId",
          "type": "uint256"
        },
        {
          "indexed": false,
          "internalType": "string",
          "name": "metadataURI",
          "type": "string"
        }
      ],
      "name": "CredentialIssued",
      "type": "event"
    },
    {
      "anonymous": false,
      "inputs": [
        {
          "indexed": true,
          "internalType": "address",
          "name": "issuer",
          "type": "address"
        },
        {
          "indexed": true,
          "internalType": "uint256",
          "name": "tokenId",
          "type": "uint256"
        }
      ],
      "name": "CredentialRevoked",
      "type": "event"
    },
    {
      "anonymous": false,
      "inputs": [
        {
          "indexed": true,
          "internalType": "address",
          "name": "issuer",
          "type": "address"
        },
        {
          "indexed": false,
          "internalType": "bool",
          "name": "verified",
          "type": "bool"
        }
      ],
      "name": "IssuerVerified",
      "type": "event"
    },
    {
      "anonymous": false,
      "inputs": [
        {
          "indexed": true,
          "internalType": "address",
          "name": "previousOwner",
          "type": "address"
        },
        {
          "indexed": true,
          "internalType": "address",
          "name": "newOwner",
          "type": "address"
        }
      ],
      "name": "OwnershipTransferred",
      "type": "event"
    },
    {
      "anonymous": false,
      "inputs": [
        {
          "indexed": true,
          "internalType": "address",
          "name": "from",
          "type": "address"
        },
        {
          "indexed": true,
          "internalType": "address",
          "name": "to",
          "type": "address"
        },
        {
          "indexed": true,
          "internalType": "uint256",
          "name": "tokenId",
          "type": "uint256"
        }
      ],
      "name": "Transfer",
      "type": "event"
    },
    {
      "inputs": [
        {
          "internalType": "address",
          "name": "to",
          "type": "address"
        },
        {
          "internalType": "uint256",
          "name": "tokenId",
          "type": "uint256"
        }
      ],
      "name": "approve",
      "outputs": [],
      "stateMutability": "nonpayable",
      "type": "function"
    },
    {
      "inputs": [
        {
          "internalType": "address",
          "name": "owner",
          "type": "address"
        }
      ],
      "name": "balanceOf",
      "outputs": [
        {
          "internalType": "uint256",
          "name": "",
          "type": "uint256"
        }
      ],
      "stateMutability": "view",
      "type": "function"
    },
    {
      "inputs": [
        {
          "internalType": "uint256",
          "name": "tokenId",
          "type": "uint256"
        }
      ],
      "name": "getApproved",
      "outputs": [
        {
          "internalType": "address",
          "name": "",
          "type": "address"
        }
      ],
      "stateMutability": "view",
      "type": "function"
    },
    {
      "inputs": [
        {
          "internalType": "address",
          "name": "student",
          "type": "address"
        }
      ],
      "name": "getCredentials",
      "outputs": [
        {
          "internalType": "uint256[]",
          "name": "",
          "type": "uint256[]"
        }
      ],
      "stateMutability": "view",
      "type": "function"
    },
    {
      "inputs": [
        {
          "internalType": "address",
          "name": "owner",
          "type": "address"
        },
        {
          "internalType": "address",
          "name": "operator",
          "type": "address"
        }
      ],
      "name": "isApprovedForAll",
      "outputs": [
        {
          "internalType": "bool",
          "name": "",
          "type": "bool"
        }
      ],
      "stateMutability": "view",
      "type": "function"
    },
    {
      "inputs": [
        {
          "internalType": "address",
          "name": "",
          "type": "address"
        }
      ],
      "name": "isVerifiedIssuer",
      "outputs": [
        {
          "internalType": "bool",
          "name": "",
          "type": "bool"
        }
      ],
      "stateMutability": "view",
      "type": "function"
    },
    {
      "inputs": [
        {
          "internalType": "address",
          "name": "student",
          "type": "address"
        },
        {
          "internalType": "string",
          "name": "metadataURI",
          "type": "string"
        }
      ],
      "name": "issueCredential",
      "outputs": [
        {
          "internalType": "uint256",
          "name": "tokenId",
          "type": "uint256"
        }
      ],
      "stateMutability": "nonpayable",
      "type": "function"
    },
    {
      "inputs": [],
      "name": "name",
      "outputs": [
        {
          "internalType": "string",
          "name": "",
          "type": "string"
        }
      ],
      "stateMutability": "view",
      "type": "function"
    },
    {
      "inputs": [],
      "name": "owner",
      "outputs": [
        {
          "internalType": "address",
          "name": "",
          "type": "address"
        }
      ],
      "stateMutability": "view",
      "type": "function"
    },
    {
      "inputs": [
        {
          "internalType": "uint256",
          "name": "tokenId",
          "type": "uint256"
        }
      ],
      "name": "ownerOf",
      "outputs": [
        {
          "internalType": "address",
          "name": "",
          "type": "address"
        }
      ],
      "stateMutability": "view",
      "type": "function"
    },
    {
      "inputs": [],
      "name": "renounceOwnership",
      "outputs": [],
      "stateMutability": "nonpayable",
      "type": "function"
    },
    {
      "inputs": [
        {
          "internalType": "uint256",
          "name": "tokenId",
          "type": "uint256"
        }
      ],
      "name": "revokeCredential",
      "outputs": [],
      "stateMutability": "nonpayable",
      "type": "function"
    },
    {
      "inputs": [
        {
          "internalType": "uint256",
          "name": "",
          "type": "uint256"
        }
      ],
      "name": "revoked",
      "outputs": [
        {
          "internalType": "bool",
          "name": "",
          "type": "bool"
        }
      ],
      "stateMutability": "view",
      "type": "function"
    },
    {
      "inputs": [
        {
          "internalType": "address",
          "name": "from",
          "type": "address"
        },
        {
          "internalType": "address",
          "name": "to",
          "type": "address"
        },
        {
          "internalType": "uint256",
          "name": "tokenId",
          "type": "uint256"
        }
      ],
      "name": "safeTransferFrom",
      "outputs": [],
      "stateMutability": "nonpayable",
      "type": "function"
    },
    {
      "inputs": [
        {
          "internalType": "address",
          "name": "from",
          "type": "address"
        },
        {
          "internalType": "address",
          "name": "to",
          "type": "address"
        },
        {
          "internalType": "uint256",
          "name": "tokenId",
          "type": "uint256"
        },
        {
          "internalType": "bytes",
          "name": "data",
          "type": "bytes"
        }
      ],
      "name": "safeTransferFrom",
      "outputs": [],
      "stateMutability": "nonpayable",
      "type": "function"
    },
    {
      "inputs": [
        {
          "internalType": "address",
          "name": "operator",
          "type": "address"
        },
        {
          "internalType": "bool",
          "name": "approved",
          "type": "bool"
        }
      ],
      "name": "setApprovalForAll",
      "outputs": [],
      "stateMutability": "nonpayable",
      "type": "function"
    },
    {
      "inputs": [
        {
          "internalType": "address",
          "name": "issuer",
          "type": "address"
        },
        {
          "internalType": "bool",
          "name": "verified",
          "type": "bool"
        }
      ],
      "name": "setVerifiedIssuer",
      "outputs": [],
      "stateMutability": "nonpayable",
      "type": "function"
    },
    {
      "inputs": [
        {
          "internalType": "bytes4",
          "name": "interfaceId",
          "type": "bytes4"
        }
      ],
      "name": "supportsInterface",
      "outputs": [
        {
          "internalType": "bool",
          "name": "",
          "type": "bool"
        }
      ],
      "stateMutability": "view",
      "type": "function"
    },
    {
      "inputs": [],
      "name": "symbol",
      "outputs": [
        {
          "internalType": "string",
          "name": "",
          "type": "string"
        }
      ],
      "stateMutability": "view",
      "type": "function"
    },
    {
      "inputs": [
        {
          "internalType": "uint256",
          "name": "tokenId",
          "type": "uint256"
        }
      ],
      "name": "tokenURI",
      "outputs": [
        {
          "internalType": "string",
          "name": "",
          "type": "string"
        }
      ],
      "stateMutability": "view",
      "type": "function"
    },
    {
      "inputs": [
        {
          "internalType": "address",
          "name": "from",
          "type": "address"
        },
        {
          "internalType": "address",
          "name": "to",
          "type": "address"
        },
        {
          "internalType": "uint256",
          "name": "tokenId",
          "type": "uint256"
        }
      ],
      "name": "transferFrom",
      "outputs": [],
      "stateMutability": "nonpayable",
      "type": "function"
    },
    {
      "inputs": [
        {
          "internalType": "address",
          "name": "newOwner",
          "type": "address"
        }
      ],
      "name": "transferOwnership",
      "outputs": [],
      "stateMutability": "nonpayable",
      "type": "function"
    }
  ],
  "bytecode": "0x60806040523480156200001157600080fd5b503360405180604001604052806011815260200170141bdb1e52510810dc9959195b9d1a585b607a1b8152506040518060400160405280600681526020016514125114d09560d21b81525081600090816200006d9190620001b9565b5060016200007c8282620001b9565b5050506001600160a01b038116620000ae57604051631e4fbdf760e01b81526000600482015260240160405180910390fd5b620000b981620000c0565b5062000285565b600680546001600160a01b038381166001600160a01b0319831681179093556040519116919082907f8be0079c531659141344cd1fd0a4f28419497f9722a3daafe3b4186f6b6457e090600090a35050565b634e487b7160e01b600052604160045260246000fd5b600181811c908216806200013d57607f821691505b6020821081036200015e57634e487b7160e01b600052602260045260246000fd5b50919050565b601f821115620001b4576000816000526020600020601f850160051c810160208610156200018f5750805b601f850160051c820191505b81811015620001b0578281556001016200019b565b5050505b505050565b81516001600160401b03811115620001d557620001d562000112565b620001ed81620001e6845462000128565b8462000164565b602080601f8311600181146200022557600084156200020c5750858301515b600019600386901b1c1916600185901b178555620001b0565b600085815260208120601f198616915b82811015620002565788860151825594840194600190910190840162000235565b5085821015620002755787850151600019600388901b60f8161c191681555b5050505050600190811b01905550565b61160180620002956000396000f3fe608060405234801561001057600080fd5b50600436106101425760003560e01c806384270608116100b8578063b88d4fde1161007c578063b88d4fde146102ab578063c87b56dd146102be578063ce21e1cb146102d1578063d5b141e7146102f4578063e985e9c514610317578063f2fde38b1461032a57600080fd5b8063842706081461024c5780638da5cb5b1461026c57806390c7c49c1461027d57806395d89b4114610290578063a22cb4651461029857600080fd5b806323b872dd1161010a57806323b872dd146101d757806342842e0e146101ea5780634e54793e146101fd5780636352211e1461021057806370a0823114610223578063715018a61461024457600080fd5b806301ffc9a71461014757806306fdde031461016f578063081812fc14610184578063095ea7b3146101af5780631b87278d146101c4575b600080fd5b61015a6101553660046110b8565b61033d565b60405190151581526020015b60405180910390f35b61017761038f565b6040516101669190611122565b610197610192366004611135565b610421565b6040516001600160a01b039091168152602001610166565b6101c26101bd36600461116a565b61044a565b005b6101c26101d2366004611135565b610459565b6101c26101e5366004611194565b610562565b6101c26101f8366004611194565b6105ed565b6101c261020b3660046111d0565b61060d565b61019761021e366004611135565b610674565b61023661023136600461120c565b61067f565b604051908152602001610166565b6101c26106c7565b61025f61025a36600461120c565b6106db565b6040516101669190611227565b6006546001600160a01b0316610197565b61023661028b3660046112f7565b610747565b610177610886565b6101c26102a63660046111d0565b610895565b6101c26102b9366004611359565b6108a0565b6101776102cc366004611135565b6108b8565b61015a6102df36600461120c565b600b6020526000908152604090205460ff1681565b61015a610302366004611135565b600a6020526000908152604090205460ff1681565b61015a6103253660046113d5565b6109a7565b6101c261033836600461120c565b6109d5565b60006001600160e01b031982166380ac58cd60e01b148061036e57506001600160e01b03198216635b5e139f60e01b145b8061038957506301ffc9a760e01b6001600160e01b03198316145b92915050565b60606000805461039e90611408565b80601f01602080910402602001604051908101604052809291908181526020018280546103ca90611408565b80156104175780601f106103ec57610100808354040283529160200191610417565b820191906000526020600020905b8154815290600101906020018083116103fa57829003601f168201915b5050505050905090565b600061042c82610a13565b506000828152600460205260409020546001600160a01b0316610389565b610455828233610a4c565b5050565b336000908152600b602052604090205460ff166104b35760405162461bcd60e51b81526020600482015260136024820152722737ba103b32b934b334b2b21034b9b9bab2b960691b60448201526064015b60405180910390fd5b6000818152600260205260409020546001600160a01b03166105095760405162461bcd60e51b815260206004820152600f60248201526e125b9d985b1a59081d1bdad95b9259608a1b60448201526064016104aa565b6000818152600a60205260409020805460ff191660011790558061052a3390565b6001600160a01b03167ff2fcadf579f414e0330984b542cd6af76f79cc0213bfd8d53adf88364f1d262160405160405180910390a350565b6001600160a01b03821661058c57604051633250574960e11b8152600060048201526024016104aa565b6000610599838333610a59565b9050836001600160a01b0316816001600160a01b0316146105e7576040516364283d7b60e01b81526001600160a01b03808616600483015260248201849052821660448201526064016104aa565b50505050565b610608838383604051806020016040528060008152506108a0565b505050565b610615610ae1565b6001600160a01b0382166000818152600b6020908152604091829020805460ff191685151590811790915591519182527fed05aca62923ed34025c2a56b718b52daa6c3227a2b24a73b53759a8e55a2e96910160405180910390a25050565b600061038982610a13565b60006001600160a01b0382166106ab576040516322718ad960e21b8152600060048201526024016104aa565b506001600160a01b031660009081526003602052604090205490565b6106cf610ae1565b6106d96000610b0e565b565b6001600160a01b03811660009081526009602090815260409182902080548351818402810184019094528084526060939283018282801561073b57602002820191906000526020600020905b815481526020019060010190808311610727575b50505050509050919050565b336000908152600b602052604081205460ff1661079c5760405162461bcd60e51b81526020600482015260136024820152722737ba103b32b934b334b2b21034b9b9bab2b960691b60448201526064016104aa565b6001600160a01b0383166107e45760405162461bcd60e51b815260206004820152600f60248201526e125b9d985b1a59081cdd1d59195b9d608a1b60448201526064016104aa565b600780549060006107f483611442565b919050555060075490506108088382610b60565b6108128183610b7a565b6001600160a01b0383166000818152600960209081526040822080546001810182559083529120018290558190336001600160a01b03167fa21eca1f4377884c61125bfacdd582bff77e7c3aabedb7ebc5742be7af9dcbbb856040516108789190611122565b60405180910390a492915050565b60606001805461039e90611408565b610455338383610b92565b6108ab848484610562565b6105e73385858585610c31565b6000818152600260205260409020546060906001600160a01b03166109135760405162461bcd60e51b81526020600482015260116024820152702737b732bc34b9ba32b73a103a37b5b2b760791b60448201526064016104aa565b6000828152600860205260409020805461092c90611408565b80601f016020809104026020016040519081016040528092919081815260200182805461095890611408565b801561073b5780601f1061097a5761010080835404028352916020019161073b565b820191906000526020600020905b8154815290600101906020018083116109885750939695505050505050565b6001600160a01b03918216600090815260056020908152604080832093909416825291909152205460ff1690565b6109dd610ae1565b6001600160a01b038116610a0757604051631e4fbdf760e01b8152600060048201526024016104aa565b610a1081610b0e565b50565b6000818152600260205260408120546001600160a01b03168061038957604051637e27328960e01b8152600481018490526024016104aa565b6106088383836001610d5c565b6000828152600260205260408120546001600160a01b03168015801590610a8857506001600160a01b03851615155b15610acd5760405162461bcd60e51b81526020600482015260156024820152745342543a206e6f6e2d7472616e7366657261626c6560581b60448201526064016104aa565b610ad8858585610e62565b95945050505050565b6006546001600160a01b031633146106d95760405163118cdaa760e01b81523360048201526024016104aa565b600680546001600160a01b038381166001600160a01b0319831681179093556040519116919082907f8be0079c531659141344cd1fd0a4f28419497f9722a3daafe3b4186f6b6457e090600090a35050565b610455828260405180602001604052806000815250610f5b565b600082815260086020526040902061060882826114b1565b6001600160a01b038216610bc457604051630b61174360e31b81526001600160a01b03831660048201526024016104aa565b6001600160a01b03838116600081815260056020908152604080832094871680845294825291829020805460ff191686151590811790915591519182527f17307eab39ab6107e8899845ad3d59bd9653f200f220920489ca2b5937696c31910160405180910390a3505050565b6001600160a01b0383163b15610d5557604051630a85bd0160e11b81526001600160a01b0384169063150b7a0290610c73908890889087908790600401611571565b6020604051808303816000875af1925050508015610cae575060408051601f3d908101601f19168201909252610cab918101906115ae565b60015b610d17573d808015610cdc576040519150601f19603f3d011682016040523d82523d6000602084013e610ce1565b606091505b508051600003610d0f57604051633250574960e11b81526001600160a01b03851660048201526024016104aa565b805160208201fd5b6001600160e01b03198116630a85bd0160e11b14610d5357604051633250574960e11b81526001600160a01b03851660048201526024016104aa565b505b5050505050565b8080610d7057506001600160a01b03821615155b15610e32576000610d8084610a13565b90506001600160a01b03831615801590610dac5750826001600160a01b0316816001600160a01b031614155b8015610dbf5750610dbd81846109a7565b155b15610de85760405163a9fbf51f60e01b81526001600160a01b03841660048201526024016104aa565b8115610e305783856001600160a01b0316826001600160a01b03167f8c5be1e5ebec7d5bd14f71427d1e84f3dd0314c0f7b2291e5b200ac8c7c3b92560405160405180910390a45b505b5050600090815260046020526040902080546001600160a01b0319166001600160a01b0392909216919091179055565b6000828152600260205260408120546001600160a01b0390811690831615610e8f57610e8f818486610f73565b6001600160a01b03811615610ecd57610eac600085600080610d5c565b6001600160a01b038116600090815260036020526040902080546000190190555b6001600160a01b03851615610efc576001600160a01b0385166000908152600360205260409020805460010190555b60008481526002602052604080822080546001600160a01b0319166001600160a01b0389811691821790925591518793918516917fddf252ad1be2c89b69c2b068fc378daa952ba7f163c4a11628f55a4df523b3ef91a4949350505050565b610f658383610fd7565b610608336000858585610c31565b610f7e83838361103c565b610608576001600160a01b038316610fac57604051637e27328960e01b8152600481018290526024016104aa565b60405163177e802f60e01b81526001600160a01b0383166004820152602481018290526044016104aa565b6001600160a01b03821661100157604051633250574960e11b8152600060048201526024016104aa565b600061100f83836000610a59565b90506001600160a01b03811615610608576040516339e3563760e11b8152600060048201526024016104aa565b60006001600160a01b0383161580159061109a5750826001600160a01b0316846001600160a01b03161480611076575061107684846109a7565b8061109a57506000828152600460205260409020546001600160a01b038481169116145b949350505050565b6001600160e01b031981168114610a1057600080fd5b6000602082840312156110ca57600080fd5b81356110d5816110a2565b9392505050565b6000815180845260005b81811015611102576020818501810151868301820152016110e6565b506000602082860101526020601f19601f83011685010191505092915050565b6020815260006110d560208301846110dc565b60006020828403121561114757600080fd5b5035919050565b80356001600160a01b038116811461116557600080fd5b919050565b6000806040838503121561117d57600080fd5b6111868361114e565b946020939093013593505050565b6000806000606084860312156111a957600080fd5b6111b28461114e565b92506111c06020850161114e565b9150604084013590509250925092565b600080604083850312156111e357600080fd5b6111ec8361114e565b91506020830135801515811461120157600080fd5b809150509250929050565b60006020828403121561121e57600080fd5b6110d58261114e565b6020808252825182820181905260009190848201906040850190845b8181101561125f57835183529284019291840191600101611243565b50909695505050505050565b634e487b7160e01b600052604160045260246000fd5b600067ffffffffffffffff8084111561129c5761129c61126b565b604051601f8501601f19908116603f011681019082821181831017156112c4576112c461126b565b816040528093508581528686860111156112dd57600080fd5b858560208301376000602087830101525050509392505050565b6000806040838503121561130a57600080fd5b6113138361114e565b9150602083013567ffffffffffffffff81111561132f57600080fd5b8301601f8101851361134057600080fd5b61134f85823560208401611281565b9150509250929050565b6000806000806080858703121561136f57600080fd5b6113788561114e565b93506113866020860161114e565b925060408501359150606085013567ffffffffffffffff8111156113a957600080fd5b8501601f810187136113ba57600080fd5b6113c987823560208401611281565b91505092959194509250565b600080604083850312156113e857600080fd5b6113f18361114e565b91506113ff6020840161114e565b90509250929050565b600181811c9082168061141c57607f821691505b60208210810361143c57634e487b7160e01b600052602260045260246000fd5b50919050565b60006001820161146257634e487b7160e01b600052601160045260246000fd5b5060010190565b601f821115610608576000816000526020600020601f850160051c810160208610156114925750805b601f850160051c820191505b81811015610d535782815560010161149e565b815167ffffffffffffffff8111156114cb576114cb61126b565b6114df816114d98454611408565b84611469565b602080601f83116001811461151457600084156114fc5750858301515b600019600386901b1c1916600185901b178555610d53565b600085815260208120601f198616915b8281101561154357888601518255948401946001909101908401611524565b50858210156115615787850151600019600388901b60f8161c191681555b5050505050600190811b01905550565b6001600160a01b03858116825284166020820152604081018390526080606082018190526000906115a4908301846110dc565b9695505050505050565b6000602082840312156115c057600080fd5b81516110d5816110a256fea2646970667358221220f4a8ac3f45a48e5ef2b54491a0c4d271bba287abd64138dfbf2ead55cd1d75e864736f6c63430008180033",
  "linkReferences": {},
  "deployedLinkReferences": {}
}